:100000000C9483000C94A0000C94A0000C94A0000D
:100010000C94A0000C94A0000C94A0000C94A000E0
:100020000C94A0000C94A0000C94A0000C94A000D0
:100030000C94A0000C94A0000C94A0000C94A000C0
:100040000C94A0000C94A0000C94A0000C94A000B0
:100050000C940F050C94DE040C94A0000C94A000EA
:100060000C94A0000C94A0000C94A0000C94A00090
:100070000C9468050C9437050C94A000FB01FB015F
:10008000FB01FB01FB01110211021302FD01FD0145
:10009000FD01FD01FF01FF01FF01FF01110211023E
:1000A0000102010201020102010211021102030216
:1000B00003020302030211021102110205020502EA
:1000C00005020502050211021102070209020902D6
:1000D000090209020B020B020B020B0211021102B0
:1000E0000D020D020D020D020D02110211020F028E
:1000F0000F020F020F0276027A027E029002A20223
:10010000AE02B702BD0211241FBECFEFD8E0DEBFA2
:10011000CDBF11E0A0E0B1E0E0E5F2E102C0059062
:100120000D92A436B107D9F722E0A4E6B1E001C0F0
:100130001D92A23DB207E1F70E9415030C94260917
:100140000C94000081B18E7F81B981B18D7F81B91E
:1001500081B18B7F81B981B1877F81B981B18F7E78
:1001600081B9ECE7F0E080818F77808380818064C3
:100170008083808180628083EAE7F0E08081846010
:1001800080838081826080838081816080838081A0
:10019000806880830895ECE7F0E09081987F877015
:1001A000892B8083EAE7F0E080818064808381E0AE
:1001B00005C080917A0086FB882780F98130C9F3D9
:1001C000809179000895FC017183608342831382DA
:1001D000148281E08583168217820895FC0186814E
:1001E00081111FC0A081B1818381A80FB11D6C93C3
:1001F00015822381422F50E0828190E001974817B9
:10020000590711F4138202C02F5F23836A3019F457
:1002100087818F5F878393818481981302C081E0F7
:1002200086830895FC018581811120C0A081B18160
:100230009481492F50E0A40FB51F8C911682228122
:1002400030E0215031094217530711F4148202C0E3
:100250009F5F94838A3019F497819150978324810A
:100260009381291304C091E09583089580E0089557
:10027000FC0185810895FC018681089588B985E88F
:100280008A95F1F7000082B18F7782B985E88A9567
:10029000F1F7000082B1806882B9089582B18F7D44
:1002A00082B981E00E943E018FE99FE00197F1F75A
:1002B00000C0000082B1806282B90895813011F4DB
:1002C00082E001C080E092B19F7D92B984600E947B
:1002D0003E0182B1806282B90895813011F080E0E0
:1002E00001C084E0613009F48260413009F481602A
:1002F00092B19F7D92B988600E943E0182B1806276
:1003000082B90895CF93DF93C62FD42F98E398B97D
:1003100092B19F7D92B992B19F7B92B99FEF97B9AD
:1003200091B1906E91B9EFE1FEE43197F1F700C021
:10033000000092B19F7792B9EFE0F7E23197F1F7C1
:1003400000C0000092B1906892B9EFE0F7E23197F7
:10035000F1F700C0000092B19F7792B9E7ECF0E0AE
:100360003197F1F700C0000092B1906892B9E7ECC4
:10037000F0E03197F1F700C0000092B19F7792B999
:10038000EFEFF5E03197F1F700C0000092B190680F
:1003900092B90E945E014D2F6C2F81E00E946D0189
:1003A0000E944E01DF91CF910895613011F090E0ED
:1003B00001C090E4890F92B19F7D92B980680E943C
:1003C0003E0182B1806282B90895E82F82B18062D5
:1003D00082B9E03220F08E2F0E943E0108958E2FC8
:1003E00090E0FC01E05CF109ED33F105D0F4E25C52
:1003F000FF4F0C94360681E417C085E415C089E4EC
:1004000013C08FE411C085E50FC081E60DC083E6FF
:100410000BC085E609C089E607C08FE605C085E701
:1004200003C085EA01C083E40E943E01089540E0D4
:1004300061E081E00E9482011092650110926401E6
:1004400008950E944E01109265010895CF93DF93A5
:10045000803168F4623058F4D62FC82F0E94D5013D
:100460008C2F90E1D99F800D112480936501DF913D
:10047000CF9108958F70089582958F7008951F937E
:10048000CF93DF93182FC09165018C2F0E943C02FF
:10049000D82F113049F4CF3118F0109265010DC0FA
:1004A000CF5FC093650109C0C11104C08FE1809383
:1004B000650103C0C150C0936501809165010E9430
:1004C0003C0291E0D81301C090E0892FDF91CF91D9
:1004D0001F910895CF93DF9390E08830910508F045
:1004E00051C0FC01E558FF4F0C94360681E00E9494
:1004F0003F0248C080E00E943F0244C0C0916501B5
:100500008C2F0E943C02811107C0C05FC09365011F
:1005100081E08093640136C0C051C093650132C050
:10052000C09165018C2F0E943C02882339F0CF7066
:10053000C093650181E08093640124C0C05FC093D3
:10054000650120C0809165010E943C0290E0019607
:100550008295807F81508093650114C080916501F0
:100560000E943C028295807F809365010BC0809140
:1005700065018F708093650105C080916501805F82
:1005800080936501C09165018C2F0E943C02D82F99
:100590008C2F0E943A026D2F0E94D501DF91CF91DE
:1005A0000895CF93DF93C82F803268F48A3019F012
:1005B0008D3029F024C083E00E946A0220C085E0CB
:1005C0000E946A021CC080916401813021F40E9463
:1005D0004E01109264018C2F0E94E50181E00E947F
:1005E0003F02813061F4C09165018C2F0E943C0272
:1005F000D82F8C2F0E943A026D2F0E94D501DF91D7
:10060000CF9108950F931F93CF938C01C0E003C047
:100610000E94D102CF5FF801EC0FF11D80818111A2
:10062000F7CFCF911F910F910895CF93DF93CDB75F
:10063000DEB7E3970FB6F894DEBF0FBECDBF1C82C6
:100640001D821E821F82188619861A861B860E94AA
:1006500017020E94A20080E00E94AF050E949E0344
:1006600078940E942102AE01485F5F4F67E0CE019F
:1006700004960E940A04AE01475F5F4F66E0CE0118
:1006800005960E940A04AE01455F5F4F62E0CE010D
:1006900007960E9426044F816D818C810E9442043E
:1006A0000E94AA04AE014D5F5F4FBE016E5F7F4F97
:1006B000CE0101960E94B7034B816A8189810E9415
:1006C000D6038D81882339F0BE01665F7F4FCE014E
:1006D00006960E9495048F811F928F938E811F92A0
:1006E0008F938D811F928F938C811F928F938B811B
:1006F0001F928F938A811F928F9389811F928F936C
:1007000081E091E09F938F938E01045F1F4F1F93B1
:100710000F930E943C06B80180E00E94E9052FEF8C
:1007200080E792E0215080409040E1F700C0000057
:100730000FB6F894DEBF0FBECDBF93CF8AB18F77CF
:100740008AB98BB180688BB98AB18F7B8AB98BB13A
:1007500080648BB98AB18F7D8AB98BB180628BB985
:1007600081B18B7F81B982B1846082B90895EF92A3
:10077000FF920F931F93CF93DF937C018B01EA01CC
:1007800080E00E94CB00F701808381E00E94CB00D3
:10079000F801808383E00E94CB0080958883DF91FD
:1007A000CF911F910F91FF90EF9008950F931F939A
:1007B000CF93DF93CDB7DEB7A8970FB6F894DEBF1F
:1007C0000FBECDBF1F924F931F926F931F928F93B7
:1007D0008AE291E09F938F938E010F5F1F4F1F93CB
:1007E0000F930E943C0661E080E00E942602C8014F
:1007F0000E9402030FB6F894DEBF0FBECDBFA896CD
:100800000FB6F894DEBF0FBECDBFDF91CF911F9121
:100810000F910895FC0129B130E002C0359527956C
:100820006A95E2F72170DA018C91281771F02C9308
:100830009081911105C0211103C081E0808308954A
:10084000913019F4211101C010820895FC0120B1EA
:1008500030E002C0359527956A95E2F72170DA01FC
:100860008C91281771F02C939081911105C0211162
:1008700003C081E080830895913019F4211101C0F3
:10088000108208950F931F93CF93DF93CDB7DEB7F8
:10089000A8970FB6F894DEBF0FBECDBF062F142F5A
:1008A000882351F088E0EDE3F1E0DE01119601903C
:1008B0000D928A95E1F709C088E0E5E4F1E0DE01F8
:1008C000119601900D928A95E1F760E080E00E9418
:1008D0002602CE0101960E940203013041F460E03D
:1008E00088E00E9426028EE191E00E94020311300E
:1008F00049F460E08EE00E94260284E291E00E94CA
:10090000020308C060E08EE00E94260287E291E0C8
:100910000E940203A8960FB6F894DEBF0FBECDBFAB
:10092000DF91CF911F910F910895FC0129B191E0C2
:1009300025FB332730F925FD90E0DB018C918111F7
:1009400005C0311103C081E0808301C01082FB012A
:1009500090830895809100018A3511F08F5F01C066
:1009600081E48093000161E08FE00E942602809183
:1009700000010E94D1020895882319F0813039F0D6
:100980000895E1ECF0E08081806280830895E9ECD5
:10099000F0E08081806280830895882319F081309F
:1009A00039F00895E1ECF0E080818F7D8083089537
:1009B000E9ECF0E080818F7D808308951F920F9293
:1009C0000FB60F9211242F933F934F935F936F9322
:1009D0007F938F939F93AF93BF93EF93FF9386E79C
:1009E00091E00E9412018093C60086E791E00E9488
:1009F0003801813019F480E00E94CD04FF91EF911D
:100A0000BF91AF919F918F917F916F915F914F9126
:100A10003F912F910F900FBE0F901F9018951F922E
:100A20000F920FB60F9211242F933F934F935F9322
:100A30006F937F938F939F93AF93BF93EF93FF93A6
:100A40006091C6008EE791E00E94EE00FF91EF9169
:100A5000BF91AF919F918F917F916F915F914F91D6
:100A60003F912F910F900FBE0F901F9018951F92DE
:100A70000F920FB60F9211242F933F934F935F93D2
:100A80006F937F938F939F93AF93BF93EF93FF9356
:100A900086E691E00E9412018093CE0086E691E006
:100AA0000E943801882319F081E00E94CD04FF9153
:100AB000EF91BF91AF919F918F917F916F915F91D6
:100AC0004F913F912F910F900FBE0F901F9018954F
:100AD0001F920F920FB60F9211242F933F934F93B3
:100AE0005F936F937F938F939F93AF93BF93EF9396
:100AF000FF936091CE008EE691E00E94EE00FF91A0
:100B0000EF91BF91AF919F918F917F916F915F9185
:100B10004F913F912F910F900FBE0F901F901895FE
:100B2000882319F0813071F00895E62FF0E0EE0F80
:100B3000FF1FEF5AFE4F808191819093C5008093F3
:100B4000C4000895E62FF0E0EE0FFF1FEF5AFE4FAE
:100B5000808191819093CD008093CC000895CF93B4
:100B6000C82F882319F08130C1F02DC086E0809312
:100B7000C20088E98093C1001092C00046E96CE38E
:100B800072E08EE791E00E94E30046E966EA71E0D8
:100B900086E791E00E94E30016C086E08093CA00D9
:100BA00088E98093C9001092C80040E166E971E0CD
:100BB0008EE691E00E94E30040E166E871E086E69F
:100BC00091E00E94E30062E08C2F0E949005CF919B
:100BD0000895CF92DF92EF92FF920F931F93CF93DE
:100BE000DF93C82E8B01D12C32C0CC2DD0E0FE017A
:100BF000EE0FFF1FE35BFE4F808191810E943B015E
:100C0000813099F38C2D0E94CD040CC0FE01EE0FB3
:100C1000FF1FE35BFE4FD7016C91808191810E94A1
:100C2000EE00D3947801ED0CF11CF701808188234C
:100C300059F0FE01EE0FFF1FE35BFE4F80819181B3
:100C40000E943B01882311F38C2D0E94BC04F80103
:100C5000ED0DF11D80818111C8CFDF91CF911F91E2
:100C60000F91FF90EF90DF90CF900895EE0FFF1F50
:100C70000590F491E02D0994AEE0B0E0E2E4F6E0F6
:100C80000C94FD080D891E8986E08C831A830983E4
:100C90008FEF9FE79E838D83AE01475E5F4F6F8925
:100CA000788DCE0101960E945E06EF81F885E00FF7
:100CB000F11F10822E96E4E00C941909ABE0B0E02D
:100CC000E4E6F6E00C94EF086C017B018A01FC017C
:100CD00017821682838181FFCCC1CE0101963C012F
:100CE000F6019381F70193FD859193FF81917F0137
:100CF000882309F4BAC1853239F493FD859193FFB5
:100D000081917F01853229F4B60190E00E94550857
:100D1000E7CF912C212C312CFFE1F315D8F08B3249
:100D200079F038F4803279F08332A1F4232D2061F8
:100D30001DC08D3261F0803369F4232D216016C00F
:100D4000832D8260382EE32DE4603E2E2AC0F32DE1
:100D5000F8601DC037FC2DC020ED280F2A3040F070
:100D60008E32B9F436FC81C1232D2064322E19C095
:100D700036FE06C08AE0989E200D1124922E11C0E6
:100D8000EAE02E9E200D1124222EF32DF0623F2E3C
:100D900008C08C3621F4832D8068382E02C0883636
:100DA00041F4F70193FD859193FF81917F018111BA
:100DB000B3CF982F9F7D9554933028F40C5F1F4F2D
:100DC0009FE399830DC0833631F0833771F083350B
:100DD00009F059C021C0F801808189830E5F1F4F3F
:100DE00088248394912C530113C02801F2E04F0E04
:100DF000511CF801A080B18036FE03C0692D70E05F
:100E000002C06FEF7FEFC5010E944A084C018201CA
:100E1000F32DFF773F2E16C0280122E0420E511C11
:100E2000F801A080B18036FE03C0692D70E002C0D9
:100E30006FEF7FEFC5010E943F084C01F32DF06872
:100E40003F2E820133FC1BC0822D90E0881699064C
:100E5000B0F4B60180E290E00E9455082A94F4CFE5
:100E6000F50137FC859137FE81915F01B60190E075
:100E70000E94550821102A9421E0821A91088114B9
:100E8000910471F7E8C0843611F0893641F5F80114
:100E900037FE07C060817181828193810C5F1F4F93
:100EA00008C060817181072E000C880B990B0E5FC2
:100EB0001F4FF32DFF763F2E97FF09C09095809529
:100EC000709561957F4F8F4F9F4FF0683F2E2AE0BE
:100ED00030E0A3010E949108882E861845C085370E
:100EE00031F4232D2F7EB22E2AE030E025C0932D41
:100EF000997FB92E8F36C1F018F4883579F0B5C0D6
:100F0000803719F0883721F0B0C0E92FE061BE2E9C
:100F1000B4FE0DC0FB2DF460BF2E09C034FE0AC024
:100F2000292F2660B22E06C028E030E005C020E15F
:100F300030E002C020E132E0F801B7FE07C0608176
:100F40007181828193810C5F1F4F06C06081718126
:100F500080E090E00E5F1F4FA3010E949108882E51
:100F60008618FB2DFF773F2E36FE0DC0232D2E7FDA
:100F7000A22E891458F434FE0BC032FC09C0832D14
:100F80008E7EA82E05C0B82CA32C03C0B82C01C09F
:100F9000B92CA4FE0FC0FE01E80DF11D8081803345
:100FA00021F49A2D997EA92E09C0A2FE06C0B39401
:100FB000B39404C08A2D867809F0B394A3FC11C0C1
:100FC000A0FE06C0B21488F4280C922C9B180EC008
:100FD000B21460F4B60180E290E00E945508B39428
:100FE000F7CFB21418F42B1802C0982C212CA4FEB1
:100FF00010C0B60180E390E00E945508A2FE17C021
:10100000A1FC03C088E790E002C088E590E0B6014B
:101010000CC08A2D867859F0A1FE02C08BE201C077
:1010200080E2A7FC8DE2B60190E00E945508891489
:1010300038F4B60180E390E00E9455089A94F7CF07
:101040008A94F301E80DF11D8081B60190E00E94C1
:1010500055088110F5CF222009F442CEB60180E276
:1010600090E00E9455082A94F6CFF6018681978178
:1010700002C08FEF9FEF2B96E2E10C940B09FC016D
:101080000590615070400110D8F7809590958E0FB3
:101090009F1F0895FC016150704001900110D8F726
:1010A000809590958E0F9F1F08950F931F93CF9358
:1010B000DF93FB01238121FD03C08FEF9FEF2CC045
:1010C00022FF16C04681578124813581421753077C
:1010D00044F4A081B1819D012F5F3F4F3183208374
:1010E0008C93268137812F5F3F4F3783268314C02F
:1010F0008B01EC01FB010084F185E02D0995892B22
:10110000E1F6D80116968D919C9117970196179646
:101110009C938E931697CE01DF91CF911F910F91E3
:101120000895FA01AA27283051F1203181F1E8947D
:101130006F936E7F6E5F7F4F8F4F9F4FAF4FB1E0CA
:101140003ED0B4E03CD0670F781F891F9A1FA11DC5
:10115000680F791F8A1F911DA11D6A0F711D811DC6
:10116000911DA11D20D009F468943F912AE0269F8B
:1011700011243019305D3193DEF6CF010895462FEA
:101180004770405D4193B3E00FD0C9F7F6CF462FCB
:101190004F70405D4A3318F0495D31FD4052419334
:1011A00002D0A9F7EACFB4E0A695979587957795F1
:1011B0006795BA95C9F700976105710508959B0178
:1011C000AC010A2E06945795479537952795BA9501
:1011D000C9F7620F731F841F951FA01D08952F92DA
:1011E0003F924F925F926F927F928F929F92AF92B7
:1011F000BF92CF92DF92EF92FF920F931F93CF9304
:10120000DF93CDB7DEB7CA1BDB0B0FB6F894DEBF9A
:101210000FBECDBF09942A88398848885F846E84C0
:101220007D848C849B84AA84B984C884DF80EE800A
:10123000FD800C811B81AA81B981CE0FD11D0FB613
:10124000F894DEBF0FBECDBFED010895F894FFCF37
:101250005A582530336459253033645A2530336465
:101260006D25644D25644C2564442564000050526E
:1012700045540000520000440000582530336420DB
:101280005925303364205A253033640A0032205403
:1012900055524E0A0031204D4F56450A00760166E0
:1012A00001CF006700330019000C000800030001A3
:0412B0000001000039
:00000001FF
