S014000050726F6A65745F4D756C74692E7372656332
S11300000C943E000C945B000C945B000C945B001D
S11300100C945B000C945B000C945B000C945B00F0
S11300200C945B000C945B000C945B000C945B00E0
S11300300C945B000C945B000C945B000C945B00D0
S11300400C945B000C945B000C945B000C945B00C0
S11300500C9408020C94D7010C945B000C945B0084
S11300600C945B000C945B000C945B000C945B00A0
S11300700C9461020C9430020C945B0011241FBE9A
S1130080CFEFD8E0DEBFCDBF11E0A0E0B1E0E6E104
S1130090F5E002C005900D92A030B107D9F721E038
S11300A0A0E0B1E001C01D92A232B207E1F70E94C4
S11300B09C010C9489020C94000084B1806184B981
S11300C084B1886084B984B5806884BD84B5806255
S11300D084BD84B58F7B84BD84B58F7E84BD84B597
S11300E0816084BD84B58D7F84BD16BC85B5816077
S11300F085BD85B58D7F85BD85B58B7F85BD08950F
S11301008AB180648AB98AB180688AB9E0EBF0E088
S113011080818068808380818062808380818F7BFE
S1130120808380818F7E80838081816080838081D1
S11301308D7F80831092B200E1EBF0E080818160DA
S1130140808380818D7F808380818B7F80830895ED
S11301508093B30008958093B4000895FC018681D0
S113016081111FC0A081B1818381A80FB11D6C933F
S113017015822381422F50E0828190E00197481735
S1130180590711F4138202C02F5F23836A3019F4D4
S113019087818F5F878393818481981302C081E074
S11301A086830895FC018581811120C0A081B181DD
S11301B09481492F50E0A40FB51F8C91168222819F
S11301C030E0215031094217530711F4148202C060
S11301D09F5F94838A3019F4978191509783248187
S11301E09381291304C091E09583089580E00895D4
S11301F0FC018581089588B985E88A95F1F70000A6
S113020082B18F7782B985E88A95F1F7000082B1CF
S1130210806882B9089582B18F7D82B981E00E949D
S1130220FB008FE99FE00197F1F700C0000082B165
S1130230806282B90895813011F482E001C080E0C7
S113024092B19F7D92B984600E94FB0082B180626A
S113025082B90895813011F080E001C084E06130FA
S113026009F48260413009F4816092B19F7D92B9B2
S113027088600E94FB0082B1806282B90895CF93A6
S1130280DF93C62FD42F98E398B992B19F7D92B98A
S113029092B19F7B92B99FEF97B991B1906E91B94A
S11302A0EFE1FEE43197F1F700C0000092B19F77CF
S11302B092B9EFE0F7E23197F1F700C0000092B194
S11302C0906892B9EFE0F7E23197F1F700C00000CF
S11302D092B19F7792B9E7ECF0E03197F1F700C063
S11302E0000092B1906892B9E7ECF0E03197F1F731
S11302F000C0000092B19F7792B9EFEFF5E031971B
S1130300F1F700C0000092B1906892B90E941B01FD
S11303104D2F6C2F81E00E942A010E940B01DF9176
S1130320CF91089540E061E081E00E943F01109286
S113033001011092000108950E9492010E945D0043
S11303400E94800081B18B7F81B982B1846082B9BF
S113035084B18F6184B980B182FBCC27C0F982FD5E
S113036008C08FEF90E00E94A80084EF91E00E9403
S1130370AB00C13081F760E67AEE80E090E00E9445
S1130380A80080E090E00E94AB00E5CF882319F03C
S1130390813039F00895E1ECF0E080818F7D808335
S11303A00895E9ECF0E080818F7D808308951F92A9
S11303B00F920FB60F9211242F933F934F935F9395
S11303C06F937F938F939F93AF93BF93EF93FF9319
S11303D082E191E00E94D2008093C60082E191E024
S11303E00E94F800813019F480E00E94C601FF9158
S11303F0EF91BF91AF919F918F917F916F915F9199
S11304004F913F912F910F900FBE0F901F90189511
S11304101F920F920FB60F9211242F933F934F9375
S11304205F936F937F938F939F93AF93BF93EF9358
S1130430FF936091C6008AE191E00E94AE00FF91B3
S1130440EF91BF91AF919F918F917F916F915F9148
S11304504F913F912F910F900FBE0F901F901895C1
S11304601F920F920FB60F9211242F933F934F9325
S11304705F936F937F938F939F93AF93BF93EF9308
S1130480FF9382E091E00E94D2008093CE0082E04C
S113049091E00E94F800882319F081E00E94C601CF
S11304A0FF91EF91BF91AF919F918F917F916F9148
S11304B05F914F913F912F910F900FBE0F901F901E
S11304C018951F920F920FB60F9211242F933F93FA
S11304D04F935F936F937F938F939F93AF93BF9348
S11304E0EF93FF936091CE008AE091E00E94AE000A
S11304F0FF91EF91BF91AF919F918F917F916F91F8
S11305005F914F913F912F910F900FBE0F901F90CD
S10905101895F894FFCFDA
S9030000FC
