S018000050726F6A65745F4D756C74695F3458342E737265630F
S11300000C9489000C94A6000C94A6000C94A600F1
S11300100C94A6000C94A6000C94A6000C94A600C4
S11300200C94A6000C94A6000C94A6000C94A600B4
S11300300C94A6000C94A6000C94A6000C94A600A4
S11300400C94A6000C94A6000C94A6000C94A60094
S11300500C9485040C9454040C94A6000C94A600EF
S11300600C94A6000C94A6000C94A6000C94A60074
S11300700C94DE040C94AD040C94A6000C020C0247
S11300800C020C020C022202220224020E020E02B4
S11300900E020E02100210021002100222022202AC
S11300A0120212021202120212022202220214028A
S11300B0140214021402220222022202160216025E
S11300C01602160216022202220218021A021A024A
S11300D01A021A021C021C021C021C022202220224
S11300E01E021E021E021E021E0222022202200202
S11300F020022002200287028B028F02A102B30297
S1130100BF02C802CE026364696E6F70737578585B
S11301105B0011241FBECFEFD8E0DEBFCDBF11E0DE
S1130120A0E0B1E0E2EEF7E102C005900D92AC333D
S1130130B107D9F722E0ACE3B1E001C01D92AA3ABD
S1130140B207E1F70E9441030C94EF0B0C940000FA
S113015084B1806184B984B1886084B984B58068CD
S113016084BD84B5806284BD84B58F7B84BD84B531
S11301708F7E84BD84B5816084BD84B58D7F84BD4C
S113018016BC85B5816085BD85B58D7F85BD85B57A
S11301908B7F85BD089587BD089588BD08958AB174
S11301A080648AB98AB180688AB9E0EBF0E0808122
S11301B08068808380818062808380818F7B80835C
S11301C080818F7E808380818160808380818D7F28
S11301D080831092B200E1EBF0E080818160808343
S11301E080818D7F808380818B7F80830895FC0153
S11301F07183608342831382148281E08583168233
S113020017820895FC01868181111FC0A081B181EC
S11302108381A80FB11D6C9315822381422F50E076
S1130220828190E001974817590711F4138202C0A4
S11302302F5F23836A3019F487818F5F87839381CB
S11302408481981302C081E086830895FC0185812E
S1130250811120C0A081B1819481492F50E0A40F65
S1130260B51F8C911682228130E02150310942174A
S1130270530711F4148202C09F5F94838A3019F4E7
S113028097819150978324819381291304C091E02D
S11302909583089580E00895FC018581089588B9C7
S11302A085E88A95F1F7000082B18F7782B985E8F5
S11302B08A95F1F7000082B1806882B9089582B10D
S11302C08F7D82B981E00E944F018FE99FE0019701
S11302D0F1F700C0000082B1806282B908958130D4
S11302E011F482E001C080E092B19F7D92B98460F4
S11302F00E944F0182B1806282B90895813011F069
S113030080E001C084E0613009F48260413009F486
S1130310816092B19F7D92B988600E944F0182B141
S1130320806282B90895CF93DF93C62FD42F98E3C8
S113033098B992B19F7D92B992B19F7B92B99FEF88
S113034097B991B1906E91B9EFE1FEE43197F1F76D
S113035000C0000092B19F7792B9EFE0F7E23197C5
S1130360F1F700C0000092B1906892B9EFE0F7E2B3
S11303703197F1F700C0000092B19F7792B9E7EC92
S1130380F0E03197F1F700C0000092B1906892B9A3
S1130390E7ECF0E03197F1F700C0000092B19F77ED
S11303A092B9EFEFF5E03197F1F700C0000092B198
S11303B0906892B90E946F014D2F6C2F81E00E94CA
S11303C07E010E945F01DF91CF910895613011F0A9
S11303D090E001C090E4890F92B19F7D92B980684A
S11303E00E944F0182B1806282B90895E82F82B1E0
S11303F0806282B9E03220F08E2F0E944F0108956E
S11304008E2F90E0FC01E05CF109ED33F105D0F4AE
S1130410E25CFF4F0C94CB0581E417C085E415C062
S113042089E413C08FE411C085E50FC081E60DC0D7
S113043083E60BC085E609C089E607C08FE605C0E0
S113044085E703C085EA01C083E40E944F01089553
S113045040E061E081E00E94930110923D0110921E
S11304603C0108950E945F0110923D010895CF93CD
S1130470DF93803168F4623058F4D62FC82F0E947D
S1130480E6018C2F90E1D99F800D112480933D01CA
S1130490DF91CF9108958F70089582958F7008959C
S11304A01F93CF93DF93182FC0913D018C2F0E948F
S11304B04D02D82F113049F4CF3118F010923D017C
S11304C00DC0CF5FC0933D0109C0C11104C08FE1CD
S11304D080933D0103C0C150C0933D0180913D0113
S11304E00E944D0291E0D81301C090E0892FDF9162
S11304F0CF911F910895CF93DF9390E088309105B9
S113050008F051C0FC01E558FF4F0C94CB0581E085
S11305100E94500248C080E00E94500244C0C09132
S11305203D018C2F0E944D02811107C0C05FC09312
S11305303D0181E080933C0136C0C051C0933D0130
S113054032C0C0913D018C2F0E944D02882339F0A6
S1130550CF70C0933D0181E080933C0124C0C05F13
S1130560C0933D0120C080913D010E944D0290E066
S113057001968295807F815080933D0114C08091C3
S11305803D010E944D028295807F80933D010BC006
S113059080913D018F7080933D0105C080913D01A4
S11305A0805F80933D01C0913D018C2F0E944D02DC
S11305B0D82F8C2F0E944B026D2F0E94E601DF91F1
S11305C0CF910895CF93DF93C82F803268F48A3097
S11305D019F08D3029F024C083E00E947B0220C0F2
S11305E085E00E947B021CC080913C01813021F493
S11305F00E945F0110923C018C2F0E94F60181E061
S11306000E945002813061F4C0913D018C2F0E9400
S11306104D02D82F8C2F0E944B026D2F0E94E601B1
S1130620DF91CF9108950F931F93CF938C01C0E076
S113063003C00E94E202CF5FF801EC0FF11D80813C
S11306408111F7CFCF911F910F910895CF93C82FA8
S11306500E94CB008C2F0E94CD00CF9108958091F1
S113066000018A3511F08F5F01C081E4809300019D
S113067061E08FE00E943702809100010E94E20253
S11306800895CF93DF93CDB7DEB7C755D1090FB621
S1130690F894DEBF0FBECDBF80E00E9425050E9406
S11306A028020E94A8000E94CF000E94260378948A
S11306B019821A821B821C821D821E821F8288E27A
S11306C0FE013896DF01982F1D929A95E9F7B896A6
S11306D0DF011D928A95E9F784B1887F84B980E0AF
S11306E00E947605811159C00E9432028FE39CE971
S11306F00197F1F700C000007E0198E0E90EF11CBB
S113070047E9B70180E00E948105CE0107969F93D7
S11307108F9301979F938F9301979F938F93019743
S11307209F938F9301979F938F9301979F938F9399
S113073001979F938F9301E011E01F930F93FF9212
S1130740EF920E94F3058F811F928F938E811F92E7
S11307508F938D811F928F938C811F928F938B81A6
S11307601F928F938A811F928F9389811F928F93F7
S11307701F930F938E01005D1F4F1F930F930E94D1
S1130780D1050FB6F894DEBF0FBECDBF60E080E0A8
S11307900E943702C8010E9413038C81882349F107
S11307A0813009F04BC08981883C68F084B18C7F2A
S11307B084B984B1846085B98B810E94CB008B811C
S11307C00E94CD003BC0853668F484B18C7F84B927
S11307D084B1826085B98B810E94CB008B810E9499
S11307E0CD002CC080E00E94CB0080E00E94CD00B0
S11307F025C08F81813069F484B18C7F84B984B140
S1130800886085B98B810E94CB008B810E94CD00CA
S113081015C081110DC084B18C7F84B984B181600D
S113082085B98B810E94CB008B810E94CD0006C0CC
S113083080E00E94CB0080E00E94CD000E942F0344
S11308404ECF882319F0813039F00895E1ECF0E0BF
S113085080818F7D80830895E9ECF0E080818F7D35
S113086080830895882319F0813039F00895E1ECEC
S1130870F0E08081806880830895E9ECF0E0808175
S1130880806880830895882319F0813039F00895B1
S1130890E1ECF0E080818F7780830895E9ECF0E06B
S11308A080818F77808308951F920F920FB60F92E5
S11308B011242F933F934F935F936F937F938F9361
S11308C09F93AF93BF93EF93FF938EE491E00E94C5
S11308D026018093C6008EE491E00E944C01813091
S11308E019F480E00E942104FF91EF91BF91AF9130
S11308F09F918F917F916F915F914F913F912F9134
S11309000F900FBE0F901F9018951F920F920FB665
S11309100F9211242F933F934F935F936F937F9381
S11309208F939F93AF93BF93EF93FF936091C60010
S113093086E591E00E940201FF91EF91BF91AF9192
S11309409F918F917F916F915F914F913F912F91E3
S11309500F900FBE0F901F9018951F920F920FB615
S11309600F9211242F933F934F935F936F937F9331
S11309708F939F93AF93BF93EF93FF938EE391E095
S11309800E9426018093CE008EE391E00E944C01E8
S1130990882319F081E00E942104FF91EF91BF9117
S11309A0AF919F918F917F916F915F914F913F9103
S11309B02F910F900FBE0F901F9018951F920F92BA
S11309C00FB60F9211242F933F934F935F936F931E
S11309D07F938F939F93AF93BF93EF93FF93609114
S11309E0CE0086E491E00E940201FF91EF91BF9155
S11309F0AF919F918F917F916F915F914F913F91B3
S1130A002F910F900FBE0F901F901895882319F007
S1130A10813071F00895E62FF0E0EE0FFF1FE75DDF
S1130A20FE4F808191819093C5008093C400089506
S1130A30E62FF0E0EE0FFF1FE75DFE4F808191810E
S1130A409093CD008093CC000895CF93C82F882332
S1130A5019F08130C1F02DC086E08093C20088E98E
S1130A608093C1001092C00046E964E172E086E51B
S1130A7091E00E94F70046E96EE771E08EE491E0B0
S1130A800E94F70016C086E08093CA0088E980932C
S1130A90C9001092C80040E16EE671E086E491E07E
S1130AA00E94F70040E16EE571E08EE391E00E9460
S1130AB0F70062E08C2F0E940605CF910895CF9332
S1130AC0DF93C82F0E944304EC2FF0E0EE0FFF1FCA
S1130AD0EB5DFE4F808191810E942601D82F8C2FDF
S1130AE00E9432048D2FDF91CF910895E82FF0E01A
S1130AF0EE0FFF1FEB5DFE4F808191810E944C0140
S1130B000895DF92EF92FF920F931F93CF93DF9399
S1130B10D82F8B01D42EC0E011C07801EC0EF11C4B
S1130B208D2F0E945F05F7018083CF5F2C2F30E06B
S1130B308D2D90E00197281739072CF48D2F0E94F2
S1130B407605882351F3C11105C06EE171E0C80137
S1130B500E94B605F801EC0FF11D1082DF91CF91D0
S1130B601F910F91FF90EF90DF900895DC0180E0DA
S1130B7005C0FD01E20FF31F40838F5F282F30E093
S1130B80FB01E20FF31F40814111F3CFFD01E20F9E
S1130B90F31F10820895EE0FFF1F0590F491E02DCE
S1130BA00994AEE0B0E0E7EDF5E00C94C60B0D89D6
S1130BB01E8986E08C831A8309838FEF9FE79E83C7
S1130BC08D83AE01475E5F4F6F89788DCE010196AC
S1130BD00E940C06EF81F885E00FF11F10822E961B
S1130BE0E4E00C94E20BAEE0B0E0E9EFF5E00C9445
S1130BF0C80B85E08C838B899C899A838983AE0199
S1130C00495E5F4F6D897E89CE0101960E948909F4
S1130C102E96E2E00C94E40BABE0B0E0E2E1F6E007
S1130C200C94B80B6C017B018A01FC0117821682BB
S1130C30838181FFCCC1CE0101963C01F6019381F1
S1130C40F70193FD859193FF81917F01882309F436
S1130C50BAC1853239F493FD859193FF81917F0167
S1130C60853229F4B60190E00E94020BE7CF912C63
S1130C70212C312CFFE1F315D8F08B3279F038F4C4
S1130C80803279F08332A1F4232D20611DC08D328E
S1130C9061F0803369F4232D216016C0832D8260B6
S1130CA0382EE32DE4603E2E2AC0F32DF8601DC0DB
S1130CB037FC2DC020ED280F2A3040F08E32B9F4D5
S1130CC036FC81C1232D2064322E19C036FE06C0A5
S1130CD08AE0989E200D1124922E11C0EAE02E9EE7
S1130CE0200D1124222EF32DF0623F2E08C08C36E5
S1130CF021F4832D8068382E02C0883641F4F70130
S1130D0093FD859193FF81917F018111B3CF982F3A
S1130D109F7D9554933028F40C5F1F4F9FE3998374
S1130D200DC0833631F0833771F0833509F059C033
S1130D3021C0F801808189830E5F1F4F882483942A
S1130D40912C530113C02801F2E04F0E511CF801FD
S1130D50A080B18036FE03C0692D70E002C06FEF41
S1130D607FEFC5010E94B90A4C018201F32DFF7780
S1130D703F2E16C0280122E0420E511CF801A0802B
S1130D80B18036FE03C0692D70E002C06FEF7FEFC3
S1130D90C5010E94AE0A4C01F32DF0683F2E82017A
S1130DA033FC1BC0822D90E088169906B0F4B6017E
S1130DB080E290E00E94020B2A94F4CFF50137FC04
S1130DC0859137FE81915F01B60190E00E94020B8C
S1130DD021102A9421E0821A91088114910471F758
S1130DE0E8C0843611F0893641F5F80137FE07C0B2
S1130DF060817181828193810C5F1F4F08C0608183
S1130E007181072E000C880B990B0E5F1F4FF32D79
S1130E10FF763F2E97FF09C0909580957095619558
S1130E207F4F8F4F9F4FF0683F2E2AE030E0A301A1
S1130E300E94570B882E861845C0853731F4232D20
S1130E402F7EB22E2AE030E025C0932D997FB92E53
S1130E508F36C1F018F4883579F0B5C0803719F0B1
S1130E60883721F0B0C0E92FE061BE2EB4FE0DC07A
S1130E70FB2DF460BF2E09C034FE0AC0292F266062
S1130E80B22E06C028E030E005C020E130E002C008
S1130E9020E132E0F801B7FE07C0608171818281F0
S1130EA093810C5F1F4F06C06081718180E090E0E8
S1130EB00E5F1F4FA3010E94570B882E8618FB2D2F
S1130EC0FF773F2E36FE0DC0232D2E7FA22E8914D0
S1130ED058F434FE0BC032FC09C0832D8E7EA82E3C
S1130EE005C0B82CA32C03C0B82C01C0B92CA4FE97
S1130EF00FC0FE01E80DF11D8081803321F49A2D8D
S1130F00997EA92E09C0A2FE06C0B394B39404C06E
S1130F108A2D867809F0B394A3FC11C0A0FE06C004
S1130F20B21488F4280C922C9B180EC0B21460F4EE
S1130F30B60180E290E00E94020BB394F7CFB214A2
S1130F4018F42B1802C0982C212CA4FE10C0B60152
S1130F5080E390E00E94020BA2FE17C0A1FC03C034
S1130F6088E790E002C088E590E0B6010CC08A2DC5
S1130F70867859F0A1FE02C08BE201C080E2A7FC92
S1130F808DE2B60190E00E94020B891438F4B60198
S1130F9080E390E00E94020B9A94F7CF8A94F301C5
S1130FA0E80DF11D8081B60190E00E94020B8110D2
S1130FB0F5CF222009F442CEB60180E290E00E94EF
S1130FC0020B2A94F6CFF6018681978102C08FEF37
S1130FD09FEF2B96E2E10C94D40B20FD09C0FC0199
S1130FE023FD05C022FF02C07383628351834083C3
S1130FF0089544FD17C046FD17C0AB01BC01DA01DA
S1131000FB01AA0FBB1FEE1FFF1F1094D1F74A0F5D
S11310105B1F6E1F7F1FCB01BA01660F771F881FEE
S1131020991F09C033E001C034E0660F771F881FA1
S1131030991F3150D1F7620F711D811D911D0895C3
S11310400F931F93CF93DF938C01C8010E94C40AAE
S1131050EC0197FD08C00E949A0A892BB1F7B801E8
S1131060CE010E943E0BCE01DF91CF911F910F91D3
S113107008958F929F92AF92BF92EF92FF920F9337
S11310801F93CF93DF938C01D62F7A01B22E0E9447
S1131090C40A9C0133272B32310531F02D3231053E
S11310A061F48B2D8068B82ED15011F480E068C0B3
S11310B0C8010E94C40A97FDF9CFCB2DCD7F2B2DFB
S11310C0207309F58033F9F4AA24AA94AD0E09F427
S11310D043C0C8010E94C40A97FD3EC09C012F7DF5
S11310E033272835310549F4C264D250A9F1C80127
S11310F00E94C40A97FF07C02FC0B6FE02C0C26098
S113110001C0C261DA2D812C912C540120ED280FED
S1131110283080F0C4FF04C0B8010E943E0B19C0FF
S11311202A3040F0C6FFF8CF2F7D3FEE320F363025
S113113098F727504C2FC501B4010E94F9074B01C1
S11311405C01C260D15059F0C8010E94C40A97FFE3
S1131150DDCFC1FD04C0AACF812C912C5401C7FF5F
S113116008C0B094A09490948094811C911CA11CFC
S1131170B11C2C2FB501A401C7010E94ED0781E029
S1131180DF91CF911F910F91FF90EF90BF90AF909F
S11311909F908F900895A0E2B0E0E1EDF8E00C9408
S11311A0BB0B5C01962E7A01F9018E010F5F1F4F74
S11311B0680180E2D8011D928A95E9F7D50113965A
S11311C08C9080E090E0612C712C30E061E070E064
S11311D083FC259183FE21918F01522E211103C09E
S11311E080E090E092C02E3511F4009751F1432F26
S11311F050E0481759073CF42D3559F12D3219F4B4
S1131200772009F103C0772009F46AC0452D46957B
S113121046954695D601A40FB11D452D47708B0107
S113122002C0000F111F4A95E2F7A8015C91452BFB
S11312304C93651459F0561410F45394E7CF5A9410
S1131240E5CF31E004C07724739401C0712C01967A
S1131250BFCF772019F08E8180628E83311103C055
S11312608824839417C0F6019E012F5D3F4F80812F
S1131270809581932E173F07D1F7F2CFE114F10443
S113128029F0D7018C93F70131967F019A94812C30
S11312909920F9F0C5010E94C40A97FD18C0FC0109
S11312A0FF2723E0F595E7952A95E1F7EC0DFD1D61
S11312B0208130E0AC014770552702C03595279551
S11312C04A95E2F720FDDACFB5010E943E0B81106A
S11312D087CFE114F10411F0D7011C92C80115C0A5
S11312E0422F469546954695D601A40FB11D422F2F
S11312F047708B0102C0000F111F4A95E2F7A80145
S11313005C91452B4C93622EA2CFA096EFE00C94F7
S1131310D70BA0E0B0E0EFE8F9E00C94BB0B6C0154
S1131320EB015A01FC0117821682512CF601E3806D
S1131330FE01E3FC8591E3FE8191182FEF018823E0
S113134009F4EEC090E00E949A0A892B21F0C601AC
S11313500E942008EBCF153241F4FE01E3FC159105
S1131360E3FE1191EF01153281F4C6010E94C40A13
S113137097FDD4C0412F50E09C0133272417350733
S1131380A9F2B6010E943E0BCBC01A3239F4E3FC39
S11313901591E3FE1191EF0101E001C000E0F12C91
S11313A020ED210F2A3080F402606F2D70E080E080
S11313B090E040E20E94F907F62EFE01E3FC15914D
S11313C0E3FE1191EF01ECCF01FF03C0F11003C064
S11313D0A7C0FF24FA94183619F01C3651F010C037
S11313E0FE01E3FC1591E3FE1191EF01183641F47F
S11313F008600460FE01E3FC1591E3FE1191EF0126
S1131400112309F48DC0612F70E086E091E00E9401
S1131410A30A892B09F484C000FD07C0F50180806C
S11314209180C50102965C0102C0812C912C1E366C
S113143051F4F6014681578160E070E0202FC40129
S11314400E94ED0773CF1336A9F401FD02C0FF24F7
S1131450F394C6010E94C40A97FD60C081149104EC
S113146029F0F4018083C40101964C01FA94F1102F
S1131470F0CF50C01B3559F49E01A4016F2DC60155
S11314800E94CB08EC01892B09F044C03EC0C60180
S11314900E94200897FD42C01F3661F128F41436DB
S11314A039F1193651F128C0133771F0153701F1AC
S11314B023C08114910429F0F4016082C4010196CF
S11314C04C01FA94FF2071F0C6010E94C40A3C0149
S11314D097FD08C00E949A0A892B59F3B601C301EB
S11314E00E943E0B81149104A9F0F401108212C0F1
S11314F0006203C0006101C00064202FA4016F2DAD
S1131500C6010E943908811105C0F60183818073E8
S113151029F406C000FD0ACF539408CF552019F0D2
S1131520852D90E002C08FEF9FEFCDB7DEB7EFE0DF
S11315300C94D70B91110C94B50B803219F089508F
S11315408550C8F70895FC010590061621F0002087
S1131550D9F7C00108953197CF010895FC01059092
S1131560615070400110D8F7809590958E0F9F1FA1
S11315700895FC016150704001900110D8F78095E6
S113158090958E0F9F1F0895CF93DF93EC012B81CD
S113159020FF33C026FF0AC02F7B2B838E819F81BF
S11315A001969F838E838A8190E029C022FF0FC019
S11315B0E881F9818081082E000C990B009719F4B9
S11315C020622B831AC03196F983E8830EC0EA8522
S11315D0FB85099597FF09C02B81019611F080E2E4
S11315E001C080E1822B8B8308C02E813F812F5F55
S11315F03F4F3F832E83992702C08FEF9FEFDF91E8
S1131600CF9108950F931F93CF93DF93FB01238111
S113161021FD03C08FEF9FEF2CC022FF16C046812F
S11316205781248135814217530744F4A081B18145
S11316309D012F5F3F4F318320838C932681378117
S11316402F5F3F4F3783268314C08B01EC01FB01CE
S11316500084F185E02D0995892BE1F6D8011696D1
S11316608D919C911797019617969C938E9316973C
S1131670CE01DF91CF911F910F910895FB0123813A
S113168020FF12C026FD10C08F3F3FEF930761F08B
S113169082832F7D20642383268137812150310961
S11316A037832683992708958FEF9FEF0895FA01D2
S11316B0AA27283051F1203181F1E8946F936E7F8D
S11316C06E5F7F4F8F4F9F4FAF4FB1E03ED0B4E07E
S11316D03CD0670F781F891F9A1FA11D680F791FBF
S11316E08A1F911DA11D6A0F711D811D911DA11DD0
S11316F020D009F468943F912AE0269F11243019E0
S1131700305D3193DEF6CF010895462F4770405D7A
S11317104193B3E00FD0C9F7F6CF462F4F70405D29
S11317204A3318F0495D31FD4052419302D0A9F784
S1131730EACFB4E0A6959795879577956795BA957E
S1131740C9F700976105710508959B01AC010A2E44
S113175006945795479537952795BA95C9F7620F1B
S1131760731F841F951FA01D089599278827089526
S11317702F923F924F925F926F927F928F929F929D
S1131780AF92BF92CF92DF92EF92FF920F931F938B
S1131790CF93DF93CDB7DEB7CA1BDB0B0FB6F8943C
S11317A0DEBF0FBECDBF09942A88398848885F847C
S11317B06E847D848C849B84AA84B984C884DF80ED
S11317C0EE80FD800C811B81AA81B981CE0FD11DD1
S11317D00FB6F894DEBF0FBECDBFED010895F894A7
S10517E0FFCF35
S11317E25A582530336459253033645A25303364CA
S11317F26D25644D25644C256444256400002D76D2
S11318026964652D0056014601CF00670033001953
S10F1812000C00080003000100010000AD
S9030000FC
