:100000000C9489000C94A6000C94A6000C94A600F5
:100010000C94A6000C94A6000C94A6000C94A600C8
:100020000C94A6000C94A6000C94A6000C94A600B8
:100030000C94A6000C94A6000C94A6000C94A600A8
:100040000C94A6000C94A6000C94A6000C94A60098
:100050000C947C040C944B040C94A6000C94A60005
:100060000C94A6000C94A6000C94A6000C94A60078
:100070000C94D5040C94A4040C94A6004C024C02DD
:100080004C024C024C026202620264024E024E02B8
:100090004E024E02500250025002500262026202B0
:1000A000520252025202520252026202620254028E
:1000B0005402540254026202620262025602560262
:1000C0005602560256026202620258025A025A024E
:1000D0005A025A025C025C025C025C026202620228
:1000E0005E025E025E025E025E0262026202600206
:1000F000600260026002C702CB02CF02E102F3029B
:10010000FF0208030E036364696E6F70737578589D
:100110005B0011241FBECFEFD8E0DEBFCDBF11E0E2
:10012000A0E0B1E0E4E0FFE102C005900D92A03450
:10013000B107D9F722E0A0E4B1E001C01D92A53BD0
:10014000B207E1F70E9466030C94800F0C94000044
:1001500084B1806184B984B1886084B984B58068D1
:1001600084BD84B5806284BD84B58F7B84BD84B535
:100170008F7E84BD84B5816084BD84B58D7F84BD50
:1001800016BC85B5816085BD85B58D7F85BD85B57E
:100190008B7F85BD089587BD089588BD08959C0116
:1001A0008AB180618AB98AB180628AB9E0E8F0E0F8
:1001B00080818068808380818F7B80839081906242
:1001C000908390819F7E9083A1E8B0E09C919061A4
:1001D0009C939C9198609C93908192609083908175
:1001E0009E7F908310928500109284003093870048
:1001F000209386008C918B7F8C938C9182608C9362
:100200008C918E7F8C9308959093890080938800C1
:1002100008958AB180648AB98AB180688AB9E0EBAE
:10022000F0E080818068808380818062808380812B
:100230008F7B808380818F7E8083808181608083BB
:1002400080818D7F80831092B200E1EBF0E08081AD
:100250008160808380818D7F808380818B7F80839C
:1002600008958093B30008958093B4000895FC012D
:100270007183608342831382148281E085831682B6
:1002800017820895FC01868181111FC0A081B18170
:100290008381A80FB11D6C9315822381422F50E0FA
:1002A000828190E001974817590711F4138202C028
:1002B0002F5F23836A3019F487818F5F878393814F
:1002C0008481981302C081E086830895FC018581B2
:1002D000811120C0A081B1819481492F50E0A40FE9
:1002E000B51F8C911682228130E0215031094217CE
:1002F000530711F4148202C09F5F94838A3019F46B
:1003000097819150978324819381291304C091E0B0
:100310009583089580E00895FC018581089588B94A
:1003200085E88A95F1F7000082B18F7782B985E878
:100330008A95F1F7000082B1806882B9089582B190
:100340008F7D82B981E00E948F018FE99FE0019744
:10035000F1F700C0000082B1806282B90895813057
:1003600011F482E001C080E092B19F7D92B9846077
:100370000E948F0182B1806282B90895813011F0AC
:1003800080E001C084E0613009F48260413009F40A
:10039000816092B19F7D92B988600E948F0182B185
:1003A000806282B90895CF93DF93C62FD42F98E34C
:1003B00098B992B19F7D92B992B19F7B92B99FEF0C
:1003C00097B991B1906E91B9EFE1FEE43197F1F7F1
:1003D00000C0000092B19F7792B9EFE0F7E2319749
:1003E000F1F700C0000092B1906892B9EFE0F7E237
:1003F0003197F1F700C0000092B19F7792B9E7EC16
:10040000F0E03197F1F700C0000092B1906892B926
:10041000E7ECF0E03197F1F700C0000092B19F7770
:1004200092B9EFEFF5E03197F1F700C0000092B11B
:10043000906892B90E94AF014D2F6C2F81E00E940D
:10044000BE010E949F01DF91CF910895613011F0AC
:1004500090E001C090E4890F92B19F7D92B98068CD
:100460000E948F0182B1806282B90895E82F82B123
:10047000806282B9E03220F08E2F0E948F010895B1
:100480008E2F90E0FC01E05CF109ED33F105D0F432
:10049000E25CFF4F0C945C0981E417C085E415C051
:1004A00089E413C08FE411C085E50FC081E60DC05B
:1004B00083E60BC085E609C089E607C08FE605C064
:1004C00085E703C085EA01C083E40E948F01089597
:1004D00040E061E081E00E94D3011092410110925E
:1004E000400108950E949F01109241010895CF9309
:1004F000DF93803168F4623058F4D62FC82F0E9401
:1005000026028C2F90E1D99F800D11248093410108
:10051000DF91CF9108958F70089582958F7008951F
:100520001F93CF93DF93182FC09141018C2F0E940E
:100530008D02D82F113049F4CF3118F010924101BB
:100540000DC0CF5FC093410109C0C11104C08FE14C
:100550008093410103C0C150C0934101809141018A
:100560000E948D0291E0D81301C090E0892FDF91A5
:10057000CF911F910895CF93DF9390E0883091053C
:1005800008F051C0FC01E558FF4F0C945C0981E074
:100590000E94900248C080E00E94900244C0C09136
:1005A00041018C2F0E948D02811107C0C05FC09352
:1005B000410181E08093400136C0C051C0934101A8
:1005C00032C0C09141018C2F0E948D02882339F0E6
:1005D000CF70C093410181E08093400124C0C05F8F
:1005E000C093410120C0809141010E948D0290E0A2
:1005F00001968295807F81508093410114C0809143
:1006000041010E948D028295807F809341010BC041
:10061000809141018F708093410105C0809141011B
:10062000805F80934101C09141018C2F0E948D0217
:10063000D82F8C2F0E948B026D2F0E942602DF91F3
:10064000CF910895CF93DF93C82F803268F48A301A
:1006500019F08D3029F024C083E00E94BB0220C035
:1006600085E00E94BB021CC080914001813021F4D2
:100670000E949F01109240018C2F0E94360281E05F
:100680000E949002813061F4C09141018C2F0E9440
:100690008D02D82F8C2F0E948B026D2F0E94260274
:1006A000DF91CF9108950F931F93CF938C01C0E0FA
:1006B00003C00E942203CF5FF801EC0FF11D80817F
:1006C0008111F7CFCF911F910F910895CF93DF93B1
:1006D000CDB7DEB7C755D1090FB6F894DEBF0FBE50
:1006E000CDBF80E00E941C050E9468020E94A80005
:1006F00080E29EE40E94CF000E9409017894198252
:1007000081E08A831B821C821D821E821F8288E2F6
:10071000FE013896DF01982F1D929A95E9F7B89659
:10072000DF011D928A95E9F784B1807F84B984B195
:100730008F6084B980E00E946D05811176C00E94AF
:1007400072028FE39CE90197F1F700C000007E017F
:1007500098E0E90EF11C47E9B70180E00E947805B6
:10076000CE0107969F938F9301979F938F93019745
:100770009F938F9301979F938F9301979F938F934D
:1007800001979F938F9301979F938F9301E011E0BF
:100790001F930F93FF92EF920E9484098F811F9203
:1007A0008F938E811F928F938D811F928F938C8157
:1007B0001F928F938B811F928F938A811F928F93A9
:1007C00089811F928F931F930F938E01005D1F4F9E
:1007D0001F930F930E9462090FB6F894DEBF0FBEFD
:1007E000CDBF60E080E00E947702C8010E94530301
:1007F0008C81813051F46B8189810E94CB054A81C3
:100800006E818D810E94AE0710C081110BC04B819B
:1008100069818F810E94ED064A816E818D810E94DF
:10082000AE0703C080E00E94C2050E94060782CF87
:10083000882319F0813039F00895E1ECF0E08081EF
:100840008F7D80830895E9ECF0E080818F7D808347
:100850000895882319F0813039F00895E1ECF0E033
:100860008081806880830895E9ECF0E08081806871
:1008700080830895882319F0813039F00895E1ECE0
:10088000F0E080818F7780830895E9ECF0E080814B
:100890008F77808308951F920F920FB60F921124C5
:1008A0002F933F934F935F936F937F938F939F9378
:1008B000AF93BF93EF93FF9382E591E00E946601AF
:1008C0008093C60082E591E00E948C01813019F48A
:1008D00080E00E941804FF91EF91BF91AF919F912A
:1008E0008F917F916F915F914F913F912F910F90D9
:1008F0000FBE0F901F9018951F920F920FB60F9278
:1009000011242F933F934F935F936F937F938F9314
:100910009F93AF93BF93EF93FF936091C6008AE5D7
:1009200091E00E944201FF91EF91BF91AF919F91A1
:100930008F917F916F915F914F913F912F910F9088
:100940000FBE0F901F9018951F920F920FB60F9227
:1009500011242F933F934F935F936F937F938F93C4
:100960009F93AF93BF93EF93FF9382E491E00E9434
:1009700066018093CE0082E491E00E948C0188237E
:1009800019F081E00E941804FF91EF91BF91AF919F
:100990009F918F917F916F915F914F913F912F9197
:1009A0000F900FBE0F901F9018951F920F920FB6C9
:1009B0000F9211242F933F934F935F936F937F93E5
:1009C0008F939F93AF93BF93EF93FF936091CE006C
:1009D0008AE491E00E944201FF91EF91BF91AF91B3
:1009E0009F918F917F916F915F914F913F912F9147
:1009F0000F900FBE0F901F901895882319F081302B
:100A000071F00895E62FF0E0EE0FFF1FE85DFE4F56
:100A1000808191819093C5008093C4000895E62F52
:100A2000F0E0EE0FFF1FE85DFE4F80819181909313
:100A3000CD008093CC000895CF93C82F882319F060
:100A40008130C1F02DC086E08093C20088E9809398
:100A5000C1001092C00046E968E172E08AE591E0C9
:100A60000E94370146E962E871E082E591E00E9468
:100A7000370116C086E08093CA0088E98093C900D8
:100A80001092C80040E162E771E08AE491E00E94C0
:100A9000370140E162E671E082E491E00E943701B3
:100AA00062E08C2F0E94FD04CF910895CF93DF93D5
:100AB000C82F0E943A04EC2FF0E0EE0FFF1FEC5D10
:100AC000FE4F808191810E946601D82F8C2F0E9459
:100AD00029048D2FDF91CF910895E82FF0E0EE0FDC
:100AE000FF1FEC5DFE4F808191810E948C01089573
:100AF000DF92EF92FF920F931F93CF93DF93D82F44
:100B00008B01D42EC0E011C07801EC0EF11C8D2FAA
:100B10000E945605F7018083CF5F2C2F30E08D2D8A
:100B200090E00197281739072CF48D2F0E946D054E
:100B3000882351F3C11105C06DE171E0C8010E9425
:100B4000AD05F801EC0FF11D1082DF91CF911F91DF
:100B50000F91FF90EF90DF900895DC0180E005C0D9
:100B6000FD01E20FF31F40838F5F282F30E0FB0170
:100B7000E20FF31F40814111F3CFFD01E20FF31F9C
:100B800010820895CF93C82F0E94CB008C2F0E9413
:100B9000CD00CF910895883C50F084B1897F84B90D
:100BA00084B1826085B9862F0E94C205089585367A
:100BB00050F484B1897F84B984B1846085B9862F6B
:100BC0000E94C205089580E00E94C20508957F92A8
:100BD0008F929F92AF92BF92CF92DF92EF92FF924D
:100BE0000F931F93CF93DF93CDB7DEB7A8970FB6C0
:100BF000F894DEBF0FBECDBFF62E8E010F5F1F4FE4
:100C000098E2F80111929A95E9F7682F70E080E078
:100C100090E00E94610824E330E847EB5BE30E9428
:100C2000EF082DEC3CEC4CE45EE30E94BF074B0167
:100C30005C016F2D70E080E090E00E946308A501E8
:100C400094010E94EF080E942B084B015C01072EC3
:100C5000000C880B990B0E946308E62ED72EC82E35
:100C6000792E882D0E94CB008F2D0E94CD007F927F
:100C7000CF92DF92EF928AE391E09F938F931F933D
:100C80000F930E94620961E08AE00E947702C80126
:100C90000E9453030FB6F894DEBF0FBECDBFA896D7
:100CA0000FB6F894DEBF0FBECDBFDF91CF911F917D
:100CB0000F91FF90EF90DF90CF90BF90AF909F90FB
:100CC0008F907F9008957F928F929F92AF92BF9264
:100CD000CF92DF92EF92FF920F931F93CF93DF9308
:100CE000CDB7DEB7A8970FB6F894DEBF0FBECDBF65
:100CF000B62E8E010F5F1F4F98E2F80111929A9560
:100D0000E9F7682F70E080E090E00E94610824E33A
:100D100030E847EB5BEB0E94EF082BE13FE24DED43
:100D20005FE30E94BF076B017C016B2D70E080E0E8
:100D300090E00E946308A70196010E94EF080E94BC
:100D40002B086B017C01072E000C880B990B0E946D
:100D50006308A62E972E882E792E8B2D0E94CB000D
:100D60008C2D0E94CD007F928F929F92AF928AE34A
:100D700091E09F938F931F930F930E94620961E00C
:100D80008AE00E947702C8010E9453030FB6F894CC
:100D9000DEBF0FBECDBFA8960FB6F894DEBF0FBE64
:100DA000CDBFDF91CF911F910F91FF90EF90DF901A
:100DB000CF90BF90AF909F908F907F9008958E3787
:100DC00018F40E94E7050895823818F00E9463061F
:100DD0000895862F0E94C2050895962F813041F410
:100DE00084B1897F85B9642F892F0E94DF06089519
:100DF000811108C084B1866085B9642F892F0E9453
:100E0000DF06089580E00E94C205089580910001E8
:100E10008A3511F08F5F01C081E48093000161E0A9
:100E20008FE00E947702809100010E9422030895C2
:100E3000CF93C82F61E088E00E947702CF3F39F45A
:100E400085B18E7F85B98FEF0E9434010CC0C1112E
:100E500007C085B1816085B98FEF0E94340103C05E
:100E600080E00E943401CF910895882371F0809131
:100E7000B3029091B402CC9740F08091AE02811100
:100E800004C081E08093AE0208958091B3029091F6
:100E9000B402CC97C0F08091AE028130A1F4809171
:100EA000AF029091B0020A9770F484E893E00E9438
:100EB00004018091AF029091B00201969093B0022C
:100EC0008093AF0208958091AF029091B0020A978B
:100ED00078F01092B4021092B3021092B002109205
:100EE000AF021092AE028CEF98E00E9404010895C8
:100EF0008CEF98E00E9404010895882319F18091F5
:100F0000B1029091B2028E31910568F48FEF0E9488
:100F100031018091B1029091B20201969093B20298
:100F20008093B10208954E97C0F080EA0E9431018B
:100F30008091B3029091B40201969093B402809391
:100F4000B302089580E00E9431011092B402109221
:100F5000B3021092B2021092B1020895CF93DF93C0
:100F6000C82FD62F842F0E9418078D2F0E94350777
:100F70008C2F0E947D07DF91CF9108955058BB2799
:100F8000AA270E94D6070C94B5080E94A70838F03B
:100F90000E94AE0820F039F49F3F19F426F40C9417
:100FA000A4080EF4E095E7FB0C949E08E92F0E943C
:100FB000C60858F3BA17620773078407950720F02D
:100FC00079F4A6F50C94E8080EF4E0950B2EBA2FF0
:100FD000A02D0B01B90190010C01CA01A00111243F
:100FE000FF27591B99F0593F50F4503E68F11A16EB
:100FF000F040A22F232F342F4427585FF3CF46957C
:1010000037952795A795F0405395C9F77EF41F169D
:10101000BA0B620B730B840BBAF09150A1F0FF0F67
:10102000BB1F661F771F881FC2F70EC0BA0F621F53
:10103000731F841F48F4879577956795B795F79543
:101040009E3F08F0B0CF9395880F08F09927EE0FD8
:101050009795879508950E9432086894B1110C9471
:10106000E90808950E94CE0888F09F5798F0B92F9C
:101070009927B751B0F0E1F0660F771F881F991FCD
:101080001AF0BA95C9F714C0B13091F00E94E8087F
:10109000B1E008950C94E808672F782F8827B85F8F
:1010A00039F0B93FCCF3869577956795B395D9F725
:1010B0003EF490958095709561957F4F8F4F9F4F2F
:1010C0000895E89409C097FB3EF49095809570953B
:1010D00061957F4F8F4F9F4F9923A9F0F92F96E984
:1010E000BB279395F695879577956795B795F111F9
:1010F000F8CFFAF4BB0F11F460FF1BC06F5F7F4F96
:101100008F4F9F4F16C0882311F096E911C07723A7
:1011100021F09EE8872F762F05C0662371F096E8B0
:10112000862F70E060E02AF09A95660F771F881F7F
:10113000DAF7880F9695879597F9089597F99F673D
:1011400080E870E060E008959FEF80EC089500244F
:101150000A941616170618060906089500240A941C
:1011600012161306140605060895092E0394000CA2
:1011700011F4882352F0BB0F40F4BF2B11F460FF31
:1011800004C06F5F7F4F8F4F9F4F089557FD90585A
:10119000440F551F59F05F3F71F04795880F97FB3B
:1011A000991F61F09F3F79F08795089512161306F5
:1011B0001406551FF2CF4695F1DF08C01616170624
:1011C0001806991FF1CF8695710561050894089559
:1011D000E894BB2766277727CB0197F908950E94EB
:1011E00002090C94B5080E94A70838F00E94AE08C6
:1011F00020F0952311F00C949E080C94A40811245F
:101200000C94E9080E94C60870F3959FC1F3950FEE
:1012100050E0551F629FF001729FBB27F00DB11D7A
:10122000639FAA27F00DB11DAA1F649F6627B00D0A
:10123000A11D661F829F2227B00DA11D621F739FF3
:10124000B00DA11D621F839FA00D611D221F749F01
:101250003327A00D611D231F849F600D211D822F48
:10126000762F6A2F11249F5750409AF0F1F088236F
:101270004AF0EE0FFF1FBB1F661F771F881F91509C
:101280005040A9F79E3F510580F00C949E080C94A5
:10129000E9085F3FE4F3983ED4F386957795679528
:1012A000B795F795E7959F5FC1F7FE2B880F911DC6
:1012B0009695879597F90895EE0FFF1F0590F49185
:1012C000E02D0994AEE0B0E0E8E6F9E00C94570FA9
:1012D0000D891E8986E08C831A8309838FEF9FE72F
:1012E0009E838D83AE01475E5F4F6F89788DCE01FF
:1012F00001960E949D09EF81F885E00FF11F108291
:101300002E96E4E00C94730FAEE0B0E0EAE8F9E06A
:101310000C94590F85E08C838B899C899A838983EF
:10132000AE01495E5F4F6D897E89CE0101960E94B4
:101330001A0D2E96E2E00C94750FABE0B0E0E3EAF4
:10134000F9E00C94490F6C017B018A01FC011782C2
:101350001682838181FFCCC1CE0101963C01F6014A
:101360009381F70193FD859193FF81917F018823FC
:1013700009F4BAC1853239F493FD859193FF8191C7
:101380007F01853229F4B60190E00E94930EE7CFE9
:10139000912C212C312CFFE1F315D8F08B3279F010
:1013A00038F4803279F08332A1F4232D20611DC0FE
:1013B0008D3261F0803369F4232D216016C0832DB6
:1013C0008260382EE32DE4603E2E2AC0F32DF860B3
:1013D0001DC037FC2DC020ED280F2A3040F08E3282
:1013E000B9F436FC81C1232D2064322E19C036FE9B
:1013F00006C08AE0989E200D1124922E11C0EAE0CA
:101400002E9E200D1124222EF32DF0623F2E08C0B7
:101410008C3621F4832D8068382E02C0883641F442
:10142000F70193FD859193FF81917F018111B3CFE6
:10143000982F9F7D9554933028F40C5F1F4F9FE3A6
:1014400099830DC0833631F0833771F0833509F00D
:1014500059C021C0F801808189830E5F1F4F882405
:101460008394912C530113C02801F2E04F0E511CBC
:10147000F801A080B18036FE03C0692D70E002C083
:101480006FEF7FEFC5010E944A0E4C018201F32DE0
:10149000FF773F2E16C0280122E0420E511CF801B2
:1014A000A080B18036FE03C0692D70E002C06FEFEE
:1014B0007FEFC5010E943F0E4C01F32DF0683F2ED7
:1014C000820133FC1BC0822D90E088169906B0F48F
:1014D000B60180E290E00E94930E2A94F4CFF501C9
:1014E00037FC859137FE81915F01B60190E00E9443
:1014F000930E21102A9421E0821A910881149104FC
:1015000071F7E8C0843611F0893641F5F80137FEED
:1015100007C060817181828193810C5F1F4F08C079
:1015200060817181072E000C880B990B0E5F1F4F95
:10153000F32DFF763F2E97FF09C09095809570950B
:1015400061957F4F8F4F9F4FF0683F2E2AE030E02C
:10155000A3010E94E80E882E861845C0853731F415
:10156000232D2F7EB22E2AE030E025C0932D997FC7
:10157000B92E8F36C1F018F4883579F0B5C08037B0
:1015800019F0883721F0B0C0E92FE061BE2EB4FE1B
:101590000DC0FB2DF460BF2E09C034FE0AC0292FF8
:1015A0002660B22E06C028E030E005C020E130E021
:1015B00002C020E132E0F801B7FE07C0608171810E
:1015C000828193810C5F1F4F06C06081718180E032
:1015D00090E00E5F1F4FA3010E94E80E882E861830
:1015E000FB2DFF773F2E36FE0DC0232D2E7FA22E22
:1015F000891458F434FE0BC032FC09C0832D8E7E52
:10160000A82E05C0B82CA32C03C0B82C01C0B92C3F
:10161000A4FE0FC0FE01E80DF11D8081803321F48E
:101620009A2D997EA92E09C0A2FE06C0B394B39448
:1016300004C08A2D867809F0B394A3FC11C0A0FEE3
:1016400006C0B21488F4280C922C9B180EC0B21459
:1016500060F4B60180E290E00E94930EB394F7CF5D
:10166000B21418F42B1802C0982C212CA4FE10C020
:10167000B60180E390E00E94930EA2FE17C0A1FC89
:1016800003C088E790E002C088E590E0B6010CC096
:101690008A2D867859F0A1FE02C08BE201C080E25B
:1016A000A7FC8DE2B60190E00E94930E891438F4F5
:1016B000B60180E390E00E94930E9A94F7CF8A944B
:1016C000F301E80DF11D8081B60190E00E94930EB8
:1016D0008110F5CF222009F442CEB60180E290E0DD
:1016E0000E94930E2A94F6CFF6018681978102C05C
:1016F0008FEF9FEF2B96E2E10C94650F20FD09C060
:10170000FC0123FD05C022FF02C073836283518365
:101710004083089544FD17C046FD17C0AB01BC01CE
:10172000DA01FB01AA0FBB1FEE1FFF1F1094D1F7B8
:101730004A0F5B1F6E1F7F1FCB01BA01660F771F19
:10174000881F991F09C033E001C034E0660F771F7E
:10175000881F991F3150D1F7620F711D811D911D96
:1017600008950F931F93CF93DF938C01C8010E94BC
:10177000550EEC0197FD08C00E942B0E892BB1F786
:10178000B801CE010E94CF0ECE01DF91CF911F9103
:101790000F9108958F929F92AF92BF92EF92FF9216
:1017A0000F931F93CF93DF938C01D62F7A01B22E24
:1017B0000E94550E9C0133272B32310531F02D321A
:1017C000310561F48B2D8068B82ED15011F480E082
:1017D00068C0C8010E94550E97FDF9CFCB2DCD7F73
:1017E0002B2D207309F58033F9F4AA24AA94AD0EA9
:1017F00009F443C0C8010E94550E97FD3EC09C01EC
:101800002F7D33272835310549F4C264D250A9F120
:10181000C8010E94550E97FF07C02FC0B6FE02C038
:10182000C26001C0C261DA2D812C912C540120EDDF
:10183000280F283080F0C4FF04C0B8010E94CF0EEA
:1018400019C02A3040F0C6FFF8CF2F7D3FEE320F8F
:10185000363098F727504C2FC501B4010E948A0BEF
:101860004B015C01C260D15059F0C8010E94550E75
:1018700097FFDDCFC1FD04C0AACF812C912C54016C
:10188000C7FF08C0B094A09490948094811C911CD0
:10189000A11CB11C2C2FB501A401C7010E947E0B15
:1018A00081E0DF91CF911F910F91FF90EF90BF905A
:1018B000AF909F908F900895A0E2B0E0E2E6FCE048
:1018C0000C944C0F5C01962E7A01F9018E010F5F8A
:1018D0001F4F680180E2D8011D928A95E9F7D50172
:1018E00013968C9080E090E0612C712C30E061E0E8
:1018F00070E083FC259183FE21918F01522E2111EE
:1019000003C080E090E092C02E3511F4009751F1B1
:10191000432F50E0481759073CF42D3559F12D322B
:1019200019F4772009F103C0772009F46AC0452D26
:10193000469546954695D601A40FB11D452D477095
:101940008B0102C0000F111F4A95E2F7A8015C91BC
:10195000452B4C93651459F0561410F45394E7CF6B
:101960005A94E5CF31E004C07724739401C0712C00
:101970000196BFCF772019F08E8180628E8331115E
:1019800003C08824839417C0F6019E012F5D3F4F4A
:101990008081809581932E173F07D1F7F2CFE11414
:1019A000F10429F0D7018C93F70131967F019A94C5
:1019B000812C9920F9F0C5010E94550E97FD18C0A1
:1019C000FC01FF2723E0F595E7952A95E1F7EC0D5B
:1019D000FD1D208130E0AC014770552702C03595D0
:1019E00027954A95E2F720FDDACFB5010E94CF0E88
:1019F000811087CFE114F10411F0D7011C92C801C6
:101A000015C0422F469546954695D601A40FB11DA7
:101A1000422F47708B0102C0000F111F4A95E2F759
:101A2000A8015C91452B4C93622EA2CFA096EFE0CB
:101A30000C94680FA0E0B0E0E0E2FDE00C944C0FE5
:101A40006C01EB015A01FC0117821682512CF60140
:101A5000E380FE01E3FC8591E3FE8191182FEF0105
:101A6000882309F4EEC090E00E942B0E892B21F010
:101A7000C6010E94B10BEBCF153241F4FE01E3FC2D
:101A80001591E3FE1191EF01153281F4C6010E9418
:101A9000550E97FDD4C0412F50E09C0133272417E9
:101AA0003507A9F2B6010E94CF0ECBC01A3239F425
:101AB000E3FC1591E3FE1191EF0101E001C000E0AC
:101AC000F12C20ED210F2A3080F402606F2D70E0A0
:101AD00080E090E040E20E948A0BF62EFE01E3FCDB
:101AE0001591E3FE1191EF01ECCF01FF03C0F1105E
:101AF00003C0A7C0FF24FA94183619F01C3651F021
:101B000010C0FE01E3FC1591E3FE1191EF011836C0
:101B100041F408600460FE01E3FC1591E3FE1191BD
:101B2000EF01112309F48DC0612F70E086E091E090
:101B30000E94340E892B09F484C000FD07C0F50112
:101B400080809180C50102965C0102C0812C912C9D
:101B50001E3651F4F6014681578160E070E0202F77
:101B6000C4010E947E0B73CF1336A9F401FD02C09D
:101B7000FF24F394C6010E94550E97FD60C08114A6
:101B8000910429F0F4018083C40101964C01FA9478
:101B9000F110F0CF50C01B3559F49E01A4016F2DF8
:101BA000C6010E945C0CEC01892B09F044C03EC0C8
:101BB000C6010E94B10B97FD42C01F3661F128F4A7
:101BC000143639F1193651F128C0133771F0153731
:101BD00001F123C08114910429F0F4016082C40151
:101BE00001964C01FA94FF2071F0C6010E94550E37
:101BF0003C0197FD08C00E942B0E892B59F3B601BA
:101C0000C3010E94CF0E81149104A9F0F401108247
:101C100012C0006203C0006101C00064202FA40153
:101C20006F2DC6010E94CA0B811105C0F601838188
:101C3000807329F406C000FD0ACF539408CF5520C5
:101C400019F0852D90E002C08FEF9FEFCDB7DEB782
:101C5000EFE00C94680F91110C94460F803219F04C
:101C600089508550C8F70895FC010590061621F0AB
:101C70000020D9F7C00108953197CF010895FC01E4
:101C80000590615070400110D8F7809590958E0FA7
:101C90009F1F0895FC016150704001900110D8F71A
:101CA000809590958E0F9F1F0895CF93DF93EC0141
:101CB0002B8120FF33C026FF0AC02F7B2B838E8110
:101CC0009F8101969F838E838A8190E029C022FFA5
:101CD0000FC0E881F9818081082E000C990B0097D4
:101CE00019F420622B831AC03196F983E8830EC061
:101CF000EA85FB85099597FF09C02B81019611F0B4
:101D000080E201C080E1822B8B8308C02E813F815D
:101D10002F5F3F4F3F832E83992702C08FEF9FEFA6
:101D2000DF91CF9108950F931F93CF93DF93FB0122
:101D3000238121FD03C08FEF9FEF2CC022FF16C02F
:101D400046815781248135814217530744F4A0818D
:101D5000B1819D012F5F3F4F318320838C9326817A
:101D600037812F5F3F4F3783268314C08B01EC01EF
:101D7000FB010084F185E02D0995892BE1F6D8015E
:101D800016968D919C911797019617969C938E931A
:101D90001697CE01DF91CF911F910F910895FB010E
:101DA000238120FF12C026FD10C08F3F3FEF930715
:101DB00061F082832F7D2064238326813781215027
:101DC000310937832683992708958FEF9FEF089570
:101DD000FA01AA27283051F1203181F1E8946F935C
:101DE0006E7F6E5F7F4F8F4F9F4FAF4FB1E03ED002
:101DF000B4E03CD0670F781F891F9A1FA11D680FA0
:101E0000791F8A1F911DA11D6A0F711D811D911DD2
:101E1000A11D20D009F468943F912AE0269F112447
:101E20003019305D3193DEF6CF010895462F4770AB
:101E3000405D4193B3E00FD0C9F7F6CF462F4F7006
:101E4000405D4A3318F0495D31FD4052419302D064
:101E5000A9F7EACFB4E0A69597958795779567950A
:101E6000BA95C9F700976105710508959B01AC010A
:101E70000A2E06945795479537952795BA95C9F731
:101E8000620F731F841F951FA01D0895992788272F
:101E900008952F923F924F925F926F927F928F920E
:101EA0009F92AF92BF92CF92DF92EF92FF920F93E9
:101EB0001F93CF93DF93CDB7DEB7CA1BDB0B0FB6F3
:101EC000F894DEBF0FBECDBF09942A8839884888B0
:101ED0005F846E847D848C849B84AA84B984C88446
:101EE000DF80EE80FD800C811B81AA81B981CE0F3D
:101EF000D11D0FB6F894DEBF0FBECDBFED01089522
:041F0000F894FFCF83
:101F04005A582530336459253033645A25303364A4
:101F14006D25644D25644C2564442564002D766943
:101F240064652D005A014A01CF006700330019008F
:101F34000C00080003000100010025303366000096
:00000001FF
